S00D00004569544F532E7372656373
S11300000C943E000C945B000C945B000C945B001D
S11300100C945B000C945B000C945B000C945B00F0
S11300200C945B000C945B000C945B000C945B00E0
S11300300C945B000C945B000C945B000C945B00D0
S11300400C94B0000C945B000C945B000C945B006B
S11300500C945B000C945B000C945B000C945B00B0
S11300600C945B000C945B000C945B000C945B00A0
S11300700C945B000C945B000C945B0011241FBE79
S1130080CFEFD0E1DEBFCDBF11E0A0E0B1E0EEECF8
S1130090F2E002C005900D92A430B107D9F721E037
S11300A0A4E0B1E001C01D92A830B207E1F70E94BC
S11300B054010C9465010C940000FB01319790836A
S11300C0FB018083339780E88083319610823297D6
S11300D010823197108231971082319710823197B4
S11300E010823197108231971082319710823197A4
S11300F01082319710823197108231971082319794
S11301001082319710823197108231971082319783
S11301101082319710823197108231971082319773
S11301201082319710823197108231971082319763
S11301301082319710823197108231971082319753
S113014010823197108231971082089582E084BD25
S113015099EF97BD93E095BD80936E0078940895D0
S11301600F920FB60F92F8941F922F923F924F92D4
S11301705F926F927F928F929F92AF92BF92CF9233
S1130180DF92EF92FF920F931F932F933F934F931E
S11301905F936F937F938F939F93AF93BF93CF930B
S11301A0DF93EF93FF931124A0910101B091020119
S11301B00DB60D920EB60D9280910001823051F46D
S11301C08DED9FE0909307018093060181E0809379
S11301D0000123C0813089F48091060190910701C8
S11301E0909305018093040189E79FE090930701B0
S11301F0809306011092000110C080910601909135
S113020007012091040130910501309307012093E7
S113021006019093050180930401A0910101B0911E
S113022002010D900DBE0D900EBEFF91EF91DF9176
S1130230CF91BF91AF919F918F917F916F915F917A
S11302404F913F912F911F910F91FF90EF90DF906D
S1130250CF90BF90AF909F908F907F906F905F9062
S11302604F903F902F901F900F900FBE0F901895B6
S113027094E085B1892785B92FEF31EE84E02150D0
S113028030408040E1F700C00000F3CF92E085B138
S1130290892785B92FEF33EC89E021503040804025
S11302A0E1F700C00000F3CF87E084B960E070E1BB
S11302B088E391E00E945D006CE97FE086E491E0D0
S11102C00E945D000E94A600FFCFF894FFCFBD
S10702CE020601001F
S9030000FC
