S00D00004569544F532E7372656373
S11300000C943E000C9448000C9448000C94480056
S11300100C9448000C9448000C9448000C9448003C
S11300200C9448000C9448000C9448000C9448002C
S11300300C9448000C9448000C9448000C9448001C
S11300400C9448000C9448000C9448000C9448000C
S11300500C9448000C9448000C9448000C944800FC
S11300600C9448000C9448000C9448000C944800EC
S11300700C9448000C9448000C94480011241FBEB2
S1130080CFEFD0E1DEBFCDBF0E944A000C945A00EE
S11300900C94000081E084B991E085B1892785B989
S11300A02FEF39E688E1215030408040E1F700C06D
S10B00B00000F3CFF894FFCF28
S9030000FC
