:100000000C943E000C945B000C945B000C945B0021
:100010000C945B000C945B000C945B000C945B00F4
:100020000C945B000C945B000C945B000C945B00E4
:100030000C945B000C945B000C945B000C945B00D4
:100040000C9467000C945B000C945B000C945B00B8
:100050000C945B000C945B000C945B000C945B00B4
:100060000C945B000C945B000C945B000C945B00A4
:100070000C945B000C945B000C945B0011241FBE7D
:10008000CFEFD0E1DEBFCDBF11E0A0E0B1E0E4EA08
:10009000F1E002C005900D92A230B107D9F721E03E
:1000A000A2E0B1E001C01D92A430B207E1F70E94C6
:1000B000BE000C94D0000C94000082E084BD99EF47
:1000C00097BD93E095BD80936E00789408950F924C
:1000D0000FB60F92F8941F922F923F924F925F9219
:1000E0006F927F928F929F92AF92BF92CF92DF9248
:1000F000EF92FF920F931F932F933F934F935F9332
:100100006F937F938F939F93AF93BF93CF93DF931F
:10011000EF93FF931124A0910001B09101010DB65E
:100120000D920EB60D92A0910001B09101010D90BB
:100130000DBE0D900EBEFF91EF91DF91CF91BF915B
:10014000AF919F918F917F916F915F914F913F916F
:100150002F911F910F91FF90EF90DF90CF90BF9064
:10016000AF909F908F907F906F905F904F903F9057
:100170002F901F900F900FBE0F90189581E084B9BB
:100180000E945D0091E085B1892785B92FEF39E69E
:1001900088E1215030408040E1F700C00000F3CFFB
:0401A000F894FFCF01
:0201A400020156
:00000001FF
